:020000040000FA
:0400000012EF00F00B
:100008005E82F0A009D0010E00016427000E65236E
:1000180066236723F0908D845E9211002CEF13F015
:10002800510E0001A36F65EF04F0250EB619D8B480
:1000380005D0B65147EC14F065EF04F0000EA76F39
:10004800000EA66F09D0A68907D0A78529D0A68F4C
:1000580027D0C00EA61324D04FC0F6FF50C0F7FF1C
:100068004F4A502A0800F5CFB6F0B651000AD8B466
:100078001200580AD8B4EBD73C0AD8B411D0020AF7
:10008800D8B4E3D70F0AD8B40BD0050AD8B4DBD755
:10009800190AD8B4DED70D0AD8B4D9D765EF04F059
:1000A800070EA715D8B4E1D2000EA56F060EA46FEF
:1000B800A351D96EDA6ADECFB2F0DECFB3F0DECF6D
:1000C800B4F0DECFB5F0040EA327B5AF14D0B2C09C
:1000D80001F0B3C002F0B4C003F0B5C004F081EC85
:1000E80013F001C0B2F002C0B3F003C0B4F004C012
:1000F800B5F0030EA613000EA96F000EA86FB2C0CC
:1001080001F0B3C002F0B4C003F0B5C004F0000EB3
:10011800056E000E066E000E076E000E086ED0EC1F
:1001280010F0D8B082D0B435B535820FA86FA96B5E
:10013800FF0EA923A807D8A0A907A8C001F0A9C045
:1001480002F0000E046E030E036E01EC14F001C001
:10015800A8F002C0A9F0A8C007F0A9C008F0000ED6
:100168000A6E0A0E096E15EC11F007C0A8F008C057
:10017800A9F00001A9AF03D0A807D8A0A907A851E2
:10018800000874EC04F028C0AAF029C0ABF02AC01B
:10019800ACF02BC0ADF0AAC00FF0ABC010F0ACC0F3
:1001A80011F0ADC012F0B2C013F0B3C014F0B4C077
:1001B80015F0B5C016F05CEC06F00FC0AAF010C040
:1001C800ABF011C0ACF012C0ADF0AAC001F0ABC0EA
:1001D80002F0ACC003F0ADC004F0000E056E000ED6
:1001E800066E800E076E3F0E086E5AEC0FF0D8B000
:1001F80005D00001A807D8A0A90717D0AAC001F008
:10020800ABC002F0ACC003F0ADC004F0000E056E48
:10021800000E066E200E076E410E086E5AEC0FF0A7
:10022800D8A003D00001A84BA92BB2C037F0B3C0A7
:1002380038F0B4C039F0B5C03AF0060EBCEC0AF09C
:1002480028C03BF029C03CF02AC03DF02BC03EF04E
:10025800F2EC07F037C0B2F038C0B3F039C0B4F0F0
:100268003AC0B5F00001A9BF06D0A95131E10A0E84
:10027800A85DD8B02DD0B2C001F0B3C002F0B4C0B0
:1002880003F0B5C004F0000E056E000E066E000EF9
:10029800076E000E086ED0EC10F0D8B064D0B2C073
:1002A80031F0B3C032F0B4C033F0B5C034F028EC4C
:1002B80010F03150321033103410D8A454D000014B
:1002C800A9BF51D0A95104E1020EA85DD8A04BD016
:1002D800AAC001F0ABC002F0ACC003F0ADC004F09E
:1002E8005F0E056E700E066E890E076E400E086E64
:1002F8005AEC0FF0D8B003D00001F70E02D000017D
:10030800F80EA827FF0EA923A85174EC04F028C002
:10031800AAF029C0ABF02AC0ACF02BC0ADF0B2C037
:1003280001F0B3C002F0B4C003F0B5C004F0AAC035
:1003380005F0ABC006F0ACC007F0ADC008F0E0ECCB
:100348000EF001C0AEF002C0AFF003C0B0F004C0C0
:10035800B1F0000E0001B26F000EB36F000EB46F63
:10036800000EB56F3CD0B2C031F0B3C032F0B4C0AB
:1003780033F0B5C034F028EC10F031C0AEF032C024
:10038800AFF033C0B0F034C0B1F0B2C047F0B3C082
:1003980048F0B4C049F0B5C04AF0AEC001F0AFC0F3
:1003A80002F0B0C003F0B1C004F0000EB4EC0CF0E1
:1003B80001C04BF002C04CF003C04DF004C04EF039
:1003C800EAEC12F047C0B2F048C0B3F049C0B4F04C
:1003D8004AC0B5F0000E0001A96F000EA86F010E0B
:1003E800B66FB651040DA50EF324F66EFE0EF4207A
:1003F800F76E0900F550AE5D0900F550AF590900D8
:10040800F550B0590900F550B159D8A005D0B62B10
:100418000A0EB619D8A4E5D7A6C055F0030E55168E
:10042800D8B449D02D0E47EC14F045D0AEC001F039
:10043800AFC002F0B0C003F0B1C004F0B651040D73
:10044800A50EF324F66EFE0EF420F76E0900F5CF24
:1004580005F00900F5CF06F00900F5CF07F00A000E
:10046800F5CF08F057EC11F001C0AAF002C0ABF0CC
:1004780003C0ACF004C0ADF0AAC00EF0ABC00FF0E2
:10048800ACC010F0ADC011F00A0E126E000E136E63
:10049800000E146E000E156E0AEC12F00EC0AAF0D3
:1004A8000FC0ABF010C0ACF011C0ADF00001AA5104
:1004B800300F47EC14F00001B607B629D8B408D0BD
:1004C800B5D7300E47EC14F00001A807D8A0A9074B
:1004D800A9BF05D0A951F5E1A805D8B0F2D7A5BFA5
:1004E80009D0A55104E1090EA45DD8A003D0080ED7
:1004F800B66F02D0A4C0B6F0B651A45F000EA55BDB
:10050800B651D8B403D02E0E47EC14F00001B65102
:1005180074EC04F028C09EF029C09FF02AC0A0F017
:100528002BC0A1F0B2C013F0B3C014F0B4C015F0E2
:10053800B5C016F09EC00FF09FC010F0A0C011F01B
:10054800A1C012F05CEC06F00FC031F010C032F020
:1005580011C033F012C034F028EC10F031C0AEF006
:1005680032C0AFF033C0B0F034C0B1F06CD0AEC020
:1005780001F0AFC002F0B0C003F0B1C004F0B65152
:10058800040DA50EF324F66EFE0EF420F76E090096
:10059800F5CF05F00900F5CF06F00900F5CF07F013
:1005A8000A00F5CF08F057EC11F001C0AAF002C01C
:1005B800ABF003C0ACF004C0ADF0AAC00EF0ABC005
:1005C8000FF0ACC010F0ADC011F00A0E126E000EA4
:1005D800136E000E146E000E156E0AEC12F00EC0AB
:1005E800AAF00FC0ABF010C0ACF011C0ADF0000124
:1005F800AA51300F47EC14F0AEC00EF0AFC00FF0A8
:10060800B0C010F0B1C011F00001B651040DA50E34
:10061800F324F66EFE0EF420F76E0900F5CF12F003
:100628000900F5CF13F00900F5CF14F00A00F5CF53
:1006380015F00AEC12F00EC0AEF00FC0AFF010C00B
:10064800B0F011C0B1F00001B607B629D8B408D08F
:100658008ED7300E47EC14F00001A407D8A0A507E8
:10066800A451A511D8B42DD1F4D7A6C055F0C00E09
:100678005516D8A42AD0A6A90DD0A351D96EDA6AE6
:10068800DECFAEF0DECFAFF0DECFB0F0DECFB1F030
:10069800040E0DD0A351D96EDA6ADECFAEF0DDCFED
:1006A800AFF0000EAFBFFF0EB06FB16F020EA32701
:1006B800B1AF66D0030EA613B11FB01FAF1FAE6D4A
:1006C800000EAF23B023B1235BD0A6A90DD0A35150
:1006D800D96EDA6ADECFAEF0DECFAFF0DECFB0F0A3
:1006E800DECFB1F0040E0ED0A351D96EDA6ADECF98
:1006F80055F0DDCF56F055C0AEF056C0AFF0B06B38
:10070800B16B020EA3273CD0010EB66FB651040D93
:10071800A50EF324F66EFE0EF420F76E0900F550D0
:10072800AE5D0900F550AF590900F550B059090000
:10073800F550B159D8A02FD0B62B0A0EB619D8B497
:100748002AD0E4D7010EB66FB651040D850EF324F6
:10075800F66EFE0EF420F76E0900F550AE5D090046
:10076800F550AF590900F550B0590900F550B15985
:10077800D8A011D0B62B080EB619D8B40CD0E4D72F
:10078800A651C00B000AD8B4BFD7800AD8B4DAD7AC
:10079800400AD8B4B9D7A6C055F0030E5516D8B438
:1007A80003D02D0E47EC14F0B6C0A4F00001A56BE1
:1007B8007FD0A4C055F0A5C056F0D890553656360F
:1007C800D89055365636A50E5524F66EFE0E562090
:1007D800F76E0900F5CF05F00900F5CF06F009001E
:1007E800F5CF07F00A00F5CF08F0AEC001F0AFC0B2
:1007F80002F0B0C003F0B1C004F057EC11F001C032
:100808000EF002C00FF003C010F004C011F00A0E81
:10081800126E000E136E000E146E000E156E0AECAA
:1008280012F00E50300F0001B66F3FD0AEC001F08D
:10083800AFC002F0B0C003F0B1C004F0A4C055F0DE
:10084800A5C056F0D89055365636D89055365636F7
:10085800850E5524F66EFE0E5620F76E0900F5CF6C
:1008680005F00900F5CF06F00900F5CF07F00A00FA
:10087800F5CF08F057EC11F001500F0B0001A26FF3
:10088800600EA225F66EF76AFF0EF7220800F5CF74
:10089800B6F00BD0A651C00B000AD8B48AD7800A8C
:1008A800D8B4C4D7400AD8B484D7B65147EC14F0AA
:1008B8000001A407D8A0A507A429ECE1A529D8A47C
:1008C800E9D74FC0F6FF50C0F7FF4F4A502A08003B
:1008D800F5CFB6F00001B651D8B4120019EF00F008
:1008E800306E30AEF3D0306C3050800A120FD8A082
:1008F80088D0000E0A6E0A0E096E000E046E640E91
:10090800036E3050016E026A01BE0206D2EC11F08D
:1009180001C007F002C008F015EC11F0090E072617
:100928000750040D510EF324F66EFE0EF420F76EF8
:100938000900F5CF13F00900F5CF14F00900F5CF41
:1009480015F00A00F5CF16F0000E0A6E640E096E57
:100958003050076E086A07BE080615EC11F0120E33
:1009680007260750040D510EF324F66EFE0EF420F0
:10097800F76E0900F5CF0FF00900F5CF10F0090068
:10098800F5CF11F00A00F5CF12F05CEC06F00FC0BD
:100998002CF010C02DF011C02EF012C02FF02CC07A
:1009A8000FF02DC010F02EC011F02FC012F0000E65
:1009B800046E0A0E036E3050016E026A01BE020612
:1009C800D2EC11F00150040D510EF324F66EFE0E18
:1009D800F420F76E0900F5CF13F00900F5CF14F0F5
:1009E8000900F5CF15F00A00F5CF16F05CEC06F01B
:1009F8000FC028F010C029F011C02AF012C02BF047
:100A080012003050800A750FD8A04BD0000E0A6E25
:100A18000A0E096E3050076E086A07BE080615EC04
:100A280011F0090E07260750040D510EF324F66E37
:100A3800FE0EF420F76E0900F5CF0FF00900F5CF90
:100A480010F00900F5CF11F00A00F5CF12F0000EF2
:100A5800046E0A0E036E3050016E026A01BE020671
:100A6800D2EC11F00150040D510EF324F66EFE0E77
:100A7800F420F76E0900F5CF13F00900F5CF14F054
:100A88000900F5CF15F00A00F5CF16F05CEC06F07A
:100A98000FC028F010C029F011C02AF012C02BF0A6
:100AA80012003050040D510EF324F66EFE0EF420A1
:100AB800F76E0900F5CF28F00900F5CF29F00900F5
:100AC800F5CF2AF00A00F5CF2BF012003050800A3B
:100AD800120FD8A088D0000E0A6E0A0E096E000EFA
:100AE800046E640E036E3050016E026A01BE020687
:100AF800D2EC11F001C007F002C008F015EC11F0BB
:100B0800090E07260750040D1D0EF324F66EFE0E7F
:100B1800F420F76E0900F5CF13F00900F5CF14F0B3
:100B28000900F5CF15F00A00F5CF16F0000E0A6E91
:100B3800640E096E3050076E086A07BE080615EC89
:100B480011F0120E07260750040D1D0EF324F66E41
:100B5800FE0EF420F76E0900F5CF0FF00900F5CF6F
:100B680010F00900F5CF11F00A00F5CF12F05CEC97
:100B780006F00FC02CF010C02DF011C02EF012C0DE
:100B88002FF02CC00FF02DC010F02EC011F02FC088
:100B980012F0000E046E0A0E036E3050016E026AE7
:100BA80001BE0206D2EC11F00150040D1D0EF32413
:100BB800F66EFE0EF420F76E0900F5CF13F009006B
:100BC800F5CF14F00900F5CF15F00A00F5CF16F0AF
:100BD8005CEC06F00FC028F010C029F011C02AF014
:100BE80012C02BF012003050800A750FD8A04BD0DD
:100BF800000E0A6E0A0E096E3050076E086A07BEAC
:100C0800080615EC11F0090E07260750040D1D0EF5
:100C1800F324F66EFE0EF420F76E0900F5CF0FF000
:100C28000900F5CF10F00900F5CF11F00A00F5CF53
:100C380012F0000E046E0A0E036E3050016E026A46
:100C480001BE0206D2EC11F00150040D1D0EF32472
:100C5800F66EFE0EF420F76E0900F5CF13F00900CA
:100C6800F5CF14F00900F5CF15F00A00F5CF16F00E
:100C78005CEC06F00FC028F010C029F011C02AF073
:100C880012C02BF012003050040D1D0EF324F66E26
:100C9800FE0EF420F76E0900F5CF28F00900F5CF15
:100CA80029F00900F5CF2AF00A00F5CF2BF0120041
:100CB8001250800B1B6E12501224216E11BE21801F
:100CC8002150D8B40DD02128D8A408D0000E0F6E1A
:100CD800000E106E000E116E000E126E118E08D0EE
:100CE800000E0F6E000E106E000E116E000E126ECA
:100CF8001650800B1B1A165016241C6E15BE1C802D
:100D08001C50D8B40DD01C28D8A408D0000E136EDF
:100D1800000E146E000E156E000E166E158E08D09D
:100D2800000E136E000E146E000E156E000E166E79
:100D38001C50D8B403D02150D8A409D0000E0F6E8F
:100D4800000E106E000E116E000E126E120015507D
:100D58000F02F3CF26F0F4CF27F026501D6E1E6A3F
:100D68001F6A206A2750226E236A246A256A145053
:100D78001002F3CF26F0F4CF27F026501D26000EE0
:100D88001E221F22202227502226000E2322242240
:100D9800252213501102F3CF26F0F4CF27F0265066
:100DA8001D26000E1E221F22202227502226000E5A
:100DB8002322242225221FC020F01EC01FF01DC0A0
:100DC8001EF01D6A13501002F3CF26F0F4CF27F05F
:100DD80026501D2627501E22000E1F22000E2022FC
:100DE80014500F02F3CF26F0F4CF27F026501D261B
:100DF80027501E22000E1F22000E20221FC020F0A6
:100E08001EC01FF01DC01EF01D6A13500F02F3CF45
:100E180026F0F4CF27F026501D2627501E22000E5C
:100E28001F22000E202215501002F3CF26F0F4CF17
:100E380027F02650222627502322000E2422000EB7
:100E4800252214501102F3CF26F0F4CF27F02650B4
:100E5800222627502322000E2422000E2522155078
:100E68001102F3CF26F0F4CF27F02650176E275043
:100E7800186E196A1A6A19C01AF018C019F017C042
:100E880018F0176A175022261850232219502422C6
:100E98001A50252220502226000E23222422252201
:100EA8001FC020F01EC01FF01DC01EF01D6A1C5080
:100EB80021C017F0186A1726000E1822820E172470
:100EC800266EFF0E1820276E0FD0D89022362336B4
:100ED8002436253620BE2280D8901D361E361F3671
:100EE80020362606D8A0270624AEEFD7000E1C6EA3
:100EF80020AE17D0FF0E1D14176EFF0E1E14186EAD
:100F0800FF0E1F14196E7F0E20141A6E175018103A
:100F180019101A10D8B403D0010E1C6E02D022B0DA
:100F2800FBD71C50D8B41FD0010E2226000E232256
:100F38002422252225A017D022C017F023C018F09C
:100F480024C019F025C01AF01A341A32193218328E
:100F5800173217C022F018C023F019C024F01AC0A5
:100F680025F0264A272A27BE0DD0275003E1262838
:100F7800D8A008D0000E226E000E236E800E246EBC
:100F88007F0E20D027BE05D027500EE12604D8B00A
:100F98000BD0000E226E000E236E000E246E000E83
:100FA800256E000E1B6E0FD026C021F0FF0E2216F4
:100FB800FF0E23167F0E2416000E251621B0248E50
:100FC800D8902130256E1B50251222C00FF023C067
:100FD80010F024C011F025C012F012003A50800B16
:100FE800436E3A503A24456E39BE45804550D8B4D0
:100FF8000DD04528D8A408D0000E376E000E386EE4
:10100800000E396E000E3A6E398E06D0000E376E1D
:10101800000E386E000E396E000E3A6E3E50800B90
:10102800446E43504418D8A4438C3E503E24446E2A
:101038003DBE44804450D8B40DD04428D8A408D02C
:10104800000E3B6E000E3C6E000E3D6E000E3E6EB6
:101058003D8E06D0000E3B6E000E3C6E000E3D6EBF
:10106800000E3E6E4550445CD8B022D043AC02D04E
:10107800800E431A45C046F044C045F046C044F0CF
:1010880037C046F03BC037F046C03BF038C046F0AA
:101098003CC038F046C03CF039C046F03DC039F09D
:1010A80046C03DF03AC046F03EC03AF046C03EF079
:1010B800000E466E455044C03FF0406A3F5E000E49
:1010C800405A40BE2CD0405004E11A0E3F5CD8A0D4
:1010D80026D03750381039103A10D8B402D0010E43
:1010E80001D0000E466E000E376E000E386E000EF0
:1010F800396E000E3A6E44C045F015D046A005D0B2
:10110800D89046300109466E02D0D890463237B0A2
:10111800468E3A343A32393238323732452A4450D8
:10112800455CD8A0EBD743BC28D04550D8A409D0FB
:10113800000E376E000E386E000E396E000E3A6ED5
:1011480012003B5037263C5038223D5039223E5041
:101158003A223AA071D046A005D0D890463001096D
:10116800466E02D0D890463237B0468E3A343A327C
:10117800393238323732452A5FD03B50375C3C50E1
:1011880038583D5039583A50800A3F6E3E50800AD0
:101198003F58D8B025D037503B5C3F6E38503C584C
:1011A800406E39503D58416E3A503E58426EFF0EDF
:1011B8003F24376EFF0E4020386EFF0E4120396EF7
:1011C800FF0E42203A6E800E431A466C4650D8A451
:1011D8000FD0010E3726000E382239223A2208D0C5
:1011E8003B50375E3C50385A3D50395A3E503A5A77
:1011F8003750381039103A10D8A41CD04650D8A40B
:1012080019D0000E376E000E386E000E396E000EC3
:101218003A6E1200D8903736383639363A3646BEE6
:10122800378046A002D0D88001D0D89046364550A5
:10123800D8A4450639AEEED7000E446E46AE0BD0A4
:1012480046C03FF07F0E3F16D8B403D0010E446E5F
:1012580002D037B0FBD74450D8B420D0010E37267F
:10126800000E382239223A223AA018D037C03FF06F
:1012780038C040F039C041F03AC042F042344232FE
:10128800413240323F323FC037F040C038F041C0B1
:1012980039F042C03AF04528D8A4452A4528D8B4A0
:1012A80003D04550D8A40DD0000E376E000E386E0E
:1012B800000E396E000E3A6E4550D8A402D0000ECA
:1012C800436E45A002D0398E01D0399ED890453062
:1012D8003A6E43BE3A8E37C037F038C038F039C05E
:1012E80039F03AC03AF012001250800B1F6E1250BB
:1012F8001224266E11BE26802650D8B40DD026287A
:10130800D8A408D0000E0F6E000E106E000E116EDD
:10131800000E126E118E06D0000E0F6E000E106EAB
:10132800000E116E000E126E1650800B1F1A16500A
:101338001624276E15BE27802750D8B40DD027282D
:10134800D8A408D0000E136E000E146E000E156E91
:10135800000E166E158E06D0000E136E000E146E5B
:10136800000E156E000E166E135014101510161080
:10137800D8A417D0000E0F6E000E106E000E116E5E
:10138800000E126E800E11127F0E12121F501212D2
:101398000FC00FF010C010F011C011F012C012F001
:1013A80012002650D8A409D0000E0F6E000E106E41
:1013B800000E116E000E126E1200275026C017F094
:1013C800186A175E000E185A7F0E1724206E000E3A
:1013D8001820216E0FC01BF010C01CF011C01DF0AA
:1013E80012C01EF0000E0F6E000E106E000E116E71
:1013F800000E126E000E226E000E236E000E246E7A
:10140800000E256E000E276E28D02750D8B411D0B4
:10141800D8901B361C361D361E36D8900F3610361F
:101428001136123625BE0F80D89022362336243640
:10143800253613501B5C14501C5815501D58165057
:101448001E58D8A009D0258C13501B5E14501C5A66
:1014580015501D5A16501E5A272A190E2764D5D71B
:101468001B501C101D101E10D8B411D022800FD094
:10147800D8900F3610361136123625BE0F80D89008
:1014880022362336243625362006D8A0210611AE6A
:10149800EFD7000E276E25AE17D0FF0E2214176E59
:1014A800FF0E2314186EFF0E2414196E7F0E2514D8
:1014B8001A6E1750181019101A10D8B403D0010E4C
:1014C800276E02D00FB0FBD72750D8B41FD0010E1B
:1014D8000F26000E10221122122212A017D00FC0C0
:1014E80017F010C018F011C019F012C01AF01A3411
:1014F8001A3219321832173217C00FF018C010F00C
:1015080019C011F01AC012F0204A212A21BE10D0A9
:10151800215003E12028D8A00BD0000E216E2068AE
:10152800000E0F6E000E106E000E116E000E126E81
:1015380021BE05D0215011E12004D8B00ED0000EF4
:10154800216E000E206E000E0F6E000E106E000E43
:10155800116E000E126E000E1F6E20C026F026A01F
:1015680002D0118E01D0119ED8902630126E0ED75F
:10157800366E6D0E3664A0D0000E136E000E146E1B
:10158800000E156E3F0E166E640E056E365049EC51
:1015980013F02C6E2D6AD8902C362D36D8902C3618
:1015A8002D36480E2C26000E2D22510E2C24F66EB8
:1015B800FE0E2D20F76E0900F5CF0FF00900F5CFCC
:1015C80010F00900F5CF11F00A00F5CF12F05CEC2D
:1015D80006F00FC032F010C033F011C034F012C062
:1015E80035F00A0E056E640E016E3650AFEC13F03E
:1015F80049EC13F02C6E2D6AD8902C362D36D890E5
:101608002C362D36240E2C26000E2D22510E2C247D
:10161800F66EFE0E2D20F76E0900F5CF13F00900C7
:10162800F5CF14F00900F5CF15F00A00F5CF16F044
:1016380032C00FF033C010F034C011F035C012F0D2
:101648005CEC06F00FC02EF010C02FF011C030F087
:1016580012C031F02EC00FF02FC010F030C011F0C2
:1016680031C012F00A0E016E3650AFEC13F02C6E3A
:101678002D6AD8902C362D36D8902C362D36510E12
:101688002C24F66EFE0E2D20F76E0900F5CF13F010
:101698000900F5CF14F00900F5CF15F00A00F5CFD1
:1016A80016F05CEC06F00FC028F010C029F011C04D
:1016B8002AF012C02BF012000A0E366467D0000E12
:1016C800136E000E146E000E156E3F0E166E0A0E87
:1016D800056E365049EC13F02C6E2D6AD8902C36D6
:1016E8002D36D8902C362D36240E2C26000E2D2281
:1016F800510E2C24F66EFE0E2D20F76E0900F5CF44
:101708000FF00900F5CF10F00900F5CF11F00A002D
:10171800F5CF12F05CEC06F00FC032F010C033F0D9
:1017280011C034F012C035F032C00FF033C010F0E1
:1017380034C011F035C012F00A0E016E3650AFEC0D
:1017480013F02C6E2D6AD8902C362D36D8902C3666
:101758002D36510E2C24F66EFE0E2D20F76E090044
:10176800F5CF13F00900F5CF14F00900F5CF15F007
:101778000A00F5CF16F05CEC06F00FC028F010C098
:1017880029F011C02AF012C02BF012003650040DB7
:10179800510EF324F66EFE0EF420F76E0900F5CF15
:1017A8000FF00900F5CF10F00900F5CF11F00A008D
:1017B800F5CF12F0000E136E000E146E000E156EAB
:1017C8003F0E166E5CEC06F00FC028F010C029F032
:1017D80011C02AF012C02BF01200076E3DEC14F075
:1017E80033EC14F026EC14F0D00E066ECA0EE82E78
:1017F800FED7062EFCD7D90E016E060E0DEC13F09F
:10180800000E016E070E0DEC13F0000E016E080EAF
:101818000DEC13F08F0E016E090E0DEC13F0090E8E
:10182800016E0A0E0DEC13F02B0E016E0B0E0DEC73
:1018380013F0230E016E0C0E0DEC13F0000E016E6A
:101848000E0E0DEC13F0000E016E0F0E0DEC13F0E2
:10185800000E016E100E0DEC13F0000E016E110E4D
:101868000DEC13F0000E016E130E0DEC13F0720E5A
:10187800016E1D0E0DEC13F0700E016E1E0E0DECB8
:1018880013F0640E016E1F0E0DEC13F0000E016EC6
:10189800200E0DEC13F0080E016E210E0DEC13F066
:1018A800FF0E016E230E0DEC13F0000E016E240ED8
:1018B8000DEC13F0000E016E250E0DEC13F0040E66
:1018C800016E260E0DEC13F0450E016E2F0E0DEC79
:1018D80013F0550E016E300E0DEC13F0C30E016EB1
:1018E800310E0DEC13F0270E016E330E0DEC13F0D4
:1018F800030E016E360E0DEC13F00A0E016E370E54
:101908000DEC13F007C001F0390E0DEC13F0490E81
:10191800016E3A0E0DEC13F0090E016E4B0E0DEC34
:1019280013F0840E016E4D0E0DEC13F01C0E016EBB
:10193800610E0DEC13F00E0E016E620E0DEC13F03D
:101948005B0E016E630E0DEC13F0CC0E016E640E8F
:101958000DEC13F0D00E016E700E0DEC13F01200AA
:10196800096E0950D8A404AE1AD001C005F002C00F
:1019780006F003C007F004C008F0051E061E071E87
:10198800081E052A000E06220722082205C00BF0B1
:1019980006C00CF007C00DF008C00EF008D001C05A
:1019A8000BF002C00CF003C00DF004C00EF00150A3
:1019B800021003100410D8A409D0000E016E000E06
:1019C800026E000E036E000E046E1200960E0A6E72
:1019D80006D00A2AD8900E320D320C320B32000E85
:1019E8000B14056E000E0C14066E000E0D14076E17
:1019F800FE0E0E14086E0550061007100810D8B415
:101A08000DD0E7D70A2A010E0B26000E0C220D2254
:101A18000E22D8900E320D320C320B32000E0B14FF
:101A2800056E000E0C14066E000E0D14076EFF0EE8
:101A38000E14086E0550061007100810D8B407D009
:101A4800E1D70A06D8900B360C360D360E360DBE89
:101A580003D0020E0A60F5D70AA00D9ED8900A326C
:101A68000AC005F0066A076A086A05C008F0076A2E
:101A7800066A056A05500B1206500C1207500D1223
:101A880008500E120950D8A404AE01D00E8E0BC017
:101A980001F00CC002F00DC003F00EC004F01200FB
:101AA800320E6C6F000E6D6F010E6E6F000EBC6F04
:101AB800BC51BF0FD96EDA6ABC516F0FE16EE26A92
:101AC800DFCFE7FFBC2B070EBC65F2D7080E776F98
:101AD80063C078F062C079F061C07AF060C07BF0D2
:101AE8006BC07CF06AC07DF069C07EF068C07FF092
:101AF800000E806F000E816F000E826F000E836FE4
:101B080067C084F066C085F065C086F064C087F061
:101B18001C0EBA6FBA516C0FD96EDA6A000EDF6EFE
:101B2800BA2B2F0EBA65F6D76C0E016E000E036E37
:101B3800300E026E6CEC12F001C0B8F002C0B9F0C1
:101B4800B9C09DF0B8C09CF0000E576EA00E586E3C
:101B5800580E596E440E5A6E550E5B6E85EC10F099
:101B68005CEC14F08D846C0E586E320E596E98EC45
:101B780012F0000E0001BB6F56EC14F00001B76FB5
:101B8800B751D8A40CD0D00E5D6ECA0EE82EFED781
:101B98005D2EFCD70001BB2B310EBB65EDD73DECAC
:101BA80014F0D00E5D6ECA0EE82EFED75D2EFCD75F
:101BB800010E00016027000E6123622363238D94C8
:101BC800120003C009F00A6A0B6A0234093601E3FD
:101BD8000A800950116E1150D8A409D0000E016E68
:101BE800000E026E000E036E000E046E120007C097
:101BF80009F00A6A0B6A0634093601E30A800950BB
:101C0800106E1050D8B4EAD7028EFF0E0116FF0EE0
:101C18000216000E0316068EFF0E0516FF0E061698
:101C2800000E0716000E0C6E000E0D6E000E0E6EE6
:101C3800000E0F6E7F0E115E1050980F115E180E79
:101C4800106ED8900C360D360E360F360550015CE6
:101C58000650025807500358D8A007D00550015E17
:101C68000650025A0750035A0C80D89001360236A3
:101C78000336102EE6D711AE0DD01150800A970FFB
:101C8800D8A0ACD7D8900F320E320D320C32113E9C
:101C9800F9D70DD0170E116407D0A0D7D8900C36FD
:101CA8000D360E360F3611061150D8A4F7D70CC0D2
:101CB80001F00DC002F00EC003F00FC004F01200D6
:101CC800F19AD9EC13F066EC13F0680E0001BD6FC1
:101CD800E40EE82EFED7BD2FFCD700F0C4EC13F0BD
:101CE80001C06AF002C06BF098EC13F001C068F014
:101CF80002C069F0F50E00016A5D010E6B59D8A0AB
:101D080003D054EC0DF054D08D84190E0001BE6F31
:101D18005A0EBD6FB10EE82EFED7BD2FFCD7BE2FD1
:101D2800FAD700D08D94190E0001BE6F5A0EBD6F00
:101D3800B10EE82EFED7BD2FFCD7BE2FFAD700D0A4
:101D48008D84190E0001BE6F5A0EBD6FB10EE82EBC
:101D5800FED7BD2FFCD7BE2FFAD700D08D94190E11
:101D68000001BE6F5A0EBD6FB10EE82EFED7BD2F13
:101D7800FCD7BE2FFAD700D08D84190E0001BE6F94
:101D88005A0EBD6FB10EE82EFED7BD2FFCD7BE2F61
:101D9800FAD700D08D94190E0001BE6F5A0EBD6F90
:101DA800B10EE82EFED7BD2FFCD7BE2FFAD700D034
:101DB800C3EC12F0030085D7033404340E6E0E50C2
:101DC800D8A409D0000E016E000E026E000E036E3C
:101DD800000E046E1200073408340D6E0D50D8B48E
:101DE800F1D7038EFF0E0116FF0E0216FF0E031623
:101DF800000E0416078EFF0E0516FF0E0616FF0EC0
:101E08000716000E0816000E096E000E0A6E000E68
:101E18000B6E000E0C6E7F0E0E5E0D50A00F0E5E48
:101E2800200E0D6ED89009360A360B360C36055042
:101E3800015C065002580750035808500458D8A0AF
:101E480009D00550015E0650025A0750035A08503F
:101E5800045A0980D89001360236033604360D2E0E
:101E6800E1D70EAE0DD00E50800A9F0FD8A0AAD78A
:101E7800D8900C320B320A3209320E3EF9D70DD007
:101E88001F0E0E6407D09ED7D89009360A360B3637
:101E98000C360E060E50D8A4F7D709C001F00AC0B8
:101EA80002F00BC003F00CC004F01200000E011485
:101EB800096E000E02140A6E800E03140B6E7F0E5C
:101EC80004140C6E09500A100B100C10D8A408D07A
:101ED800000E016E000E026E000E036E000E046E00
:101EE800000E0514096E000E06140A6E800E071403
:101EF8000B6E7F0E08140C6E09500A100B100C1094
:101F0800D8A408D0000E056E000E066E000E076EEF
:101F1800000E086E04AE09D0016C021ED8B0022A69
:101F2800031ED8B0032A800E045608AE09D0056CEB
:101F3800061ED8B0062A071ED8B0072A800E0856F3
:101F4800000E011A000E021A000E031A800E041A5F
:101F5800000E051A000E061A000E071A800E081A3F
:101F68000550015C065002580750035808500458A1
:101F7800D8B002D0D8901200D8801200060E14EC07
:101F880014F0406E070E14EC14F0416E080E14ECB9
:101F980014F0426E41C02CF02D6A2E6A2F6A2EC0B2
:101FA8002FF02DC02EF02CC02DF02C6A40C030F040
:101FB800316A326A336A31C033F030C032F0316A84
:101FC800306A2C503010346E2D503110356E2E5032
:101FD8003210366E2F503310376E42503410386E30
:101FE8003550396E36503A6E37503B6E38C001F076
:101FF80039C002F03AC003F03BC004F0000EB4EC64
:102008000CF001C00FF002C010F003C011F004C0C2
:1020180012F0000E136E000E146E800E156E460E32
:10202800166E78EC09F00FC03CF010C03DF011C0FE
:102038003EF012C03FF03CC028F03DC029F03EC041
:102048002AF03FC02BF01200333434343A6E3A5041
:10205800D8A409D0000E316E000E326E000E336E19
:10206800000E346E120031C035F032C036F033C085
:1020780037F034C038F0200E05D0D89038323732D7
:1020880036323532E82EF9D73550396E338EFF0E99
:102098003116FF0E3216FF0E3316000E3416960E4A
:1020A8003A5E3AAE0DD03A50800A970FD8A0D2D7F0
:1020B800D89034323332323231323A3EF9D70DD0F9
:1020C8001F0E3A6407D0C6D7D89031363236333629
:1020D80034363A063A50D8A4F7D73950D8B408D08D
:1020E800341E331E321E316C000E3222332234224B
:1020F80031C031F032C032F033C033F034C034F084
:102108001200A10E4F6EFF0E506E14EC00F00F017E
:10211800389595829598959095963B933B993B97E2
:102128003B918C863E9F3F956C986D8C6D8E6C5064
:10213800F00B02096C6E6C8A810E4F6EFF0E506EAA
:1021480014EC00F0D00E5C6ECA0EE82EFED75C2EA2
:10215800FCD733EC14F0D00E5C6ECA0EE82EFED716
:102168005C2EFCD7CD0E4F6EFE0E506E14EC00F0B8
:102178005B50F1EC0BF0130E4F6EFF0E506E14EC2B
:1021880000F057C03BF058C03CF059C03DF05AC071
:102198003EF098EC11F01200000E0114096E000ECA
:1021A80002140A6E800E03140B6E7F0E04140C6E5C
:1021B80009500A100B100C10D8A408D0000E016E9C
:1021C800000E026E000E036E000E046E000E051463
:1021D800096E000E06140A6E800E07140B6E7F0E31
:1021E80008140C6E09500A100B100C10D8A408D053
:1021F800000E056E000E066E000E076E000E086ECD
:10220800055001180AE10650021807E107500318A3
:1022180004E108500418D8B402D0D8901200D8802D
:102228001200000E0C6E0AAE06D0096C0A1ED8B059
:102238000A2A010E0C6E08AE06D0076C081ED8B02C
:10224800082A010E0C1A000E0E6E000E0D6E0950B3
:102258000A10D8B41CD0010E0B6E04D0D8900936E1
:102268000A360B2A0AAEFAD7D8900D360E36095020
:10227800075C0A500858D8A005D00950075E0A50D4
:10228800085A0D80D8900A3209320B2EEDD70C501F
:10229800D8B404D00D6C0E1ED8B00E2A0DC007F0AD
:1022A8000EC008F01200000E096E000E0A6E000E35
:1022B8000B6E000E0C6E0550061007100810D8B4EF
:1022C8002AD0010E0D6E06D0D89005360636073690
:1022D80008360D2A08AEF8D7D89009360A360B36D4
:1022E8000C360550015C0650025807500358085038
:1022F8000458D8A009D00550015E0650025A07506C
:10230800035A0850045A0980D89008320732063216
:1023180005320D2EE1D709C001F00AC002F00BC04A
:1023280003F00CC004F01200000E136E000E146EC1
:10233800800E156E460E166E3BC00FF03CC010F0B6
:102348003DC011F03EC012F05CEC06F00FC031F059
:1023580010C032F011C033F012C034F028EC10F085
:1023680031C042F032C043F033C044F034C045F0CD
:1023780044C03FF043C040F042C041F03FC001F0CC
:10238800060E0DEC13F040C001F0070E0DEC13F033
:1023980041C001F0080E0DEC13F01200000E066E9D
:1023A80002AE06D0016C021ED8B0022A010E066EDB
:1023B80004AE04D0036C041ED8B0042A03500410E1
:1023C800D8B418D0010E056E04D0D8900336043660
:1023D800052A04AEFAD70350015C04500258D8A06D
:1023E80004D00350015E0450025AD89004320332DC
:1023F800052EF1D70650D8B404D0016C021ED8B00F
:10240800022A01C001F002C002F01200125013109B
:1024180014101510D8B424D0010E166E06D0D8901A
:102428001236133614361536162A15AEF8D712504A
:102438000E5C13500F581450105815501158D8A04E
:1024480008D012500E5E13500F5A1450105A1550DF
:10245800115AD8901532143213321232162EE7D789
:102468000EC00EF00FC00FF010C010F011C011F028
:102478001200016E729E729C728A729872967284B1
:10248800718E719C71887196709E709A7098708622
:10249800709270900104D8A405D0030E766E400E99
:1024A800756E12000150D8A405D0060E766E820E05
:1024B800756E1200030E0118D8A405D0000E766EB2
:1024C8008A0E756E1200010E766E170E756E12006A
:1024D800076808681CD00150D96EDA6ADF500718FF
:1024E800066E012A08C007F0086A0650020D1D0E84
:1024F800F324F66EFC0EF420F76E0900F5CF04F015
:102508000900F5CF05F00450071A0550081A02060D
:10251800D8A003060228DFE10328D8A4DCD707C027
:1025280001F008C002F0120026EC14F0710E4F6E94
:10253800FF0E506E14EC00F0000E016E0D0E0DEC47
:1025480013F0000E016E220E0DEC13F0000E5A6E01
:102558000AD058505A24D96EDA6ADF50016E000E3C
:102568000DEC13F05A2A59505A5CD8A0F2D759C02A
:1025780001F0220E0DEC13F0EEEC13F01200C290F5
:10258800000E926E020E936E000E946E000E956E03
:10259800000E966E000E896E000E8A6E000E8B6E0F
:1025A800000E8C6E000E8D6E898495820F013B9310
:1025B8008C863F8F3F8D3F8B3F893F873F853F8389
:1025C8003F813F853F833E693D691200000E4B1AEB
:1025D800000E4C1A000E4D1A800E4E1A47C037F0E6
:1025E80048C038F049C039F04AC03AF04BC03BF017
:1025F8004CC03CF04DC03DF04EC03EF0F2EC07F050
:1026080037C047F038C048F039C049F03AC04AF0FE
:102618001200036EA49E8C961A0EE82EFED700D0E8
:1026280003508009036E03C06FFFA4AEFED7A49EBB
:102638001A0EE82EFED700D001C06FFFA4AEFED759
:102648001A0EE82EFED700D08C86A49E6F5012007A
:10265800C40EF66E280EF76E000EF86E00EEBFF090
:1026680010EE08F00900F5CFEEFFE550E150FAE171
:1026780000EE60F03E0EEE6AE806FDE15E905E92C6
:10268800000EF86E000164EF0EF0066E000E086E84
:102698000550D8B415D0010E076E03D0D890053672
:1026A800072A05AEFBD7D89008360550065CD8A097
:1026B80003D00550065E0880D8900532072EF3D760
:1026C800085012000F013881388392809282F30EED
:1026D800C116FC0EC1164251CF0B1009426F428F32
:1026E800830EC216C050C70B1009C06EC050F80B3D
:1026F8000609C06EC08EC28012000150021003107D
:102708000410D8B408D0000E011A000E021A000EE8
:10271800031A800E041A01C001F002C002F003C0BF
:1027280003F004C004F01200F30EC116C250830B6C
:102738000409C26EC282C2B2FED7C450046E036AD4
:10274800C3500324056E000E0420066E05C001F078
:1027580006C002F01200026E080E036E000E046E30
:10276800D89002340434046ED89002360150045CC8
:10277800D8A002D00150045E032EF2D704501200F4
:10278800C150F30B0809C16EC282C2B2FED7C45051
:10279800046E036AC3500324056E000E0420066EFF
:1027A80005C001F006C002F012000F013F9F3F95DF
:1027B8003D913895929489943C933C953999969299
:1027C800969439939382020E3DEC12F0F086F090C5
:1027D800F28E1200C50E4F6EFF0E506E14EC00F014
:1027E80066EC14F0576E5750F80B576E57500309A4
:1027F800576E57504FEC14F0120001500302F3CFFC
:1028080005F0F4CF06F001500402F35006260250FA
:102818000302F350062605C001F006C002F01200BC
:10282800016EA49E8C9601C06FFFA4AEFED7A49E35
:10283800000E6F6EA4AEFED7A49E8C866FCF02F0FA
:102848000250120066EC14F0056E0550F80B056E88
:1028580005500109056E05504FEC14F0120066ECA6
:1028680014F0056E05508009056E05504FEC14F004
:10287800120066EC14F0056E0550F80B056E055055
:102888004FEC14F01200016E72A2FED701C073FF64
:1028980072B21200FDD7046E04C001F0010E0DECF7
:1028A80013F01200120E14EC14F0036E0350120011
:1028B800FF0E016E120E0DEC13F01200E6BA08FBC3
:0C28C8003A4F5ECE010E14EC14F012002A
:10FC1C00000000C1C081C1400101C3C0038002418A
:10FC2C00C201C6C006800741C70005C1C581C440DA
:10FC3C000401CCC00C800D41CD000FC1CF81CE4052
:10FC4C000E000AC1CA81CB400B01C9C00980084112
:10FC5C00C801D8C018801941D9001BC1DB81DA401A
:10FC6C001A001EC1DE81DF401F01DDC01D801C415A
:10FC7C00DC0014C1D481D5401501D7C017801641C2
:10FC8C00D601D2C012801341D30011C1D181D04012
:10FC9C001001F0C030803141F10033C1F381F240EA
:10FCAC00320036C1F681F7403701F5C0358034415A
:10FCBC00F4003CC1FC81FD403D01FFC03F803E4152
:10FCCC00FE01FAC03A803B41FB0039C1F981F84092
:10FCDC00380028C1E881E9402901EBC02B802A417A
:10FCEC00EA01EEC02E802F41EF002DC1ED81EC40DA
:10FCFC002C01E4C024802541E50027C1E781E640C2
:10FD0C00260022C1E281E3402301E1C02180204191
:10FD1C00E001A0C060806141A10063C1A381A24049
:10FD2C00620066C1A681A7406701A5C065806441D9
:10FD3C00A4006CC1AC81AD406D01AFC06F806E4151
:10FD4C00AE01AAC06A806B41AB0069C1A981A84011
:10FD5C00680078C1B881B9407901BBC07B807A4119
:10FD6C00BA01BEC07E807F41BF007DC1BD81BC4059
:10FD7C007C01B4C074807541B50077C1B781B640C1
:10FD8C00760072C1B281B3407301B1C07180704111
:10FD9C00B00050C190819140510193C053805241A9
:10FDAC00920196C056805741970055C19581944059
:10FDBC0054019CC05C805D419D005FC19F819E4051
:10FDCC005E005AC19A819B405B0199C05980584191
:10FDDC00980188C04880494189004BC18B818A4079
:10FDEC004A004EC18E818F404F018DC04D804C41D9
:10FDFC008C0044C184818540450187C047804641C1
:10FE0C00860182C042804341830041C18181804090
:10FE1C00400000803F000020410000C84200007AF2
:10FE2C004400401C460050C3470024744980961877
:10FE3C004B20BCBE4C286B6E4EF9021550EC78ADC5
:10FE4C0060CAF249710000803FCDCCCC3D0AD7236B
:10FE5C003C6F12833A17B7D138ACC52737BD3786FC
:10FE6C003595BFD63377CC2B325F708930FFE6DB0C
:10FE7C002E08E53C1E6042A20D010000001000009F
:10FE8C000000010000001000000000010000001044
:10FE9C00000000000100000010010000000A00003A
:10FEAC000064000000E803000010270000A0860199
:10FEBC000040420F008096980000E1F50500CA9AB8
:10FECC003B4C6F5261206C6F6164206F7074696D74
:10FEDC00616C2072656769737465722076616C75EC
:10FEEC0065730D0A005761697420666F7220656E28
:10FEFC0064206F66207472616E736D697373696FC1
:10FF0C006E2E2E2E0D0A004C6F52612073657420DC
:10FF1C006672657175656E63790D0A004D65737354
:10FF2C0061676520636F756E7420256C750D0A0012
:10FF3C005472616E736D697474696E672E2E2E0D1A
:10FF4C000A004C6F5261205261696E2047617567DF
:10FF5C00650D0A0030313233343536373839414289
:10FF6C0043444546005472616E736D697474696ED6
:10FF7C00672E0D0A00536574204C6F5261204D6F33
:10FF8C0064650D0A005261696E20746970732025D6
:10FF9C006C750D0A004C6F52612053746172740DB4
:10FFAC000A005265672025583A25580D0A00536CF3
:10FFBC00656570696E670D0A005458204D6F646555
:10FFCC000D0A0054454D502025640D0A0042415441
:10FFDC00542025640D0A005458463A2025660D0A13
:10FFEC00005458204661696C0D0A00446F6E652EF2
:04FFFC000D0A0000EA
:020000040020DA
:08000000FFFFFFFFFFFFFFFF00
:020000040030CA
:0E000000FF331C3FFFBD85FF0FC00FE00F4018
:00000001FF
